{
  "contractName": "UBPP",
  "abi": [
    {
      "constant": true,
      "inputs": [],
      "name": "name",
      "outputs": [
        {
          "name": "",
          "type": "string"
        }
      ],
      "payable": false,
      "stateMutability": "view",
      "type": "function",
      "signature": "0x06fdde03"
    },
    {
      "constant": true,
      "inputs": [],
      "name": "eno",
      "outputs": [
        {
          "name": "",
          "type": "string"
        }
      ],
      "payable": false,
      "stateMutability": "view",
      "type": "function",
      "signature": "0x077a5c7d"
    },
    {
      "constant": true,
      "inputs": [],
      "name": "height",
      "outputs": [
        {
          "name": "",
          "type": "string"
        }
      ],
      "payable": false,
      "stateMutability": "view",
      "type": "function",
      "signature": "0x0ef26743"
    },
    {
      "constant": true,
      "inputs": [],
      "name": "all",
      "outputs": [
        {
          "name": "",
          "type": "string"
        }
      ],
      "payable": false,
      "stateMutability": "view",
      "type": "function",
      "signature": "0x10c4e8b0"
    },
    {
      "constant": true,
      "inputs": [
        {
          "name": "",
          "type": "uint256"
        }
      ],
      "name": "docs",
      "outputs": [
        {
          "name": "id",
          "type": "uint256"
        },
        {
          "name": "hash",
          "type": "string"
        },
        {
          "name": "description",
          "type": "string"
        },
        {
          "name": "tipAmount",
          "type": "uint256"
        },
        {
          "name": "author",
          "type": "address"
        }
      ],
      "payable": false,
      "stateMutability": "view",
      "type": "function",
      "signature": "0x23389c5a"
    },
    {
      "constant": true,
      "inputs": [],
      "name": "pres",
      "outputs": [
        {
          "name": "",
          "type": "string"
        }
      ],
      "payable": false,
      "stateMutability": "view",
      "type": "function",
      "signature": "0x2e029c0f"
    },
    {
      "constant": true,
      "inputs": [],
      "name": "date",
      "outputs": [
        {
          "name": "",
          "type": "string"
        }
      ],
      "payable": false,
      "stateMutability": "view",
      "type": "function",
      "signature": "0x323046b1"
    },
    {
      "constant": true,
      "inputs": [],
      "name": "ename",
      "outputs": [
        {
          "name": "",
          "type": "string"
        }
      ],
      "payable": false,
      "stateMutability": "view",
      "type": "function",
      "signature": "0x3655aa00"
    },
    {
      "constant": true,
      "inputs": [],
      "name": "docCount",
      "outputs": [
        {
          "name": "",
          "type": "uint256"
        }
      ],
      "payable": false,
      "stateMutability": "view",
      "type": "function",
      "signature": "0x4c4dc6e0"
    },
    {
      "constant": true,
      "inputs": [],
      "name": "mform",
      "outputs": [
        {
          "name": "formname",
          "type": "string"
        }
      ],
      "payable": false,
      "stateMutability": "view",
      "type": "function",
      "signature": "0x5586fab2"
    },
    {
      "constant": true,
      "inputs": [],
      "name": "mformCount",
      "outputs": [
        {
          "name": "",
          "type": "uint256"
        }
      ],
      "payable": false,
      "stateMutability": "view",
      "type": "function",
      "signature": "0x690fa5f2"
    },
    {
      "constant": true,
      "inputs": [],
      "name": "gender",
      "outputs": [
        {
          "name": "",
          "type": "string"
        }
      ],
      "payable": false,
      "stateMutability": "view",
      "type": "function",
      "signature": "0x79caad86"
    },
    {
      "constant": true,
      "inputs": [],
      "name": "sym",
      "outputs": [
        {
          "name": "",
          "type": "string"
        }
      ],
      "payable": false,
      "stateMutability": "view",
      "type": "function",
      "signature": "0x83813a28"
    },
    {
      "constant": true,
      "inputs": [
        {
          "name": "",
          "type": "uint256"
        }
      ],
      "name": "images",
      "outputs": [
        {
          "name": "id",
          "type": "uint256"
        },
        {
          "name": "hash",
          "type": "string"
        },
        {
          "name": "description",
          "type": "string"
        },
        {
          "name": "tipAmount",
          "type": "uint256"
        },
        {
          "name": "author",
          "type": "address"
        }
      ],
      "payable": false,
      "stateMutability": "view",
      "type": "function",
      "signature": "0x84856482"
    },
    {
      "constant": true,
      "inputs": [],
      "name": "fullname",
      "outputs": [
        {
          "name": "",
          "type": "string"
        }
      ],
      "payable": false,
      "stateMutability": "view",
      "type": "function",
      "signature": "0x8ef490ea"
    },
    {
      "constant": true,
      "inputs": [],
      "name": "imageCount",
      "outputs": [
        {
          "name": "",
          "type": "uint256"
        }
      ],
      "payable": false,
      "stateMutability": "view",
      "type": "function",
      "signature": "0x92053b63"
    },
    {
      "constant": true,
      "inputs": [],
      "name": "his",
      "outputs": [
        {
          "name": "",
          "type": "string"
        }
      ],
      "payable": false,
      "stateMutability": "view",
      "type": "function",
      "signature": "0x9449834f"
    },
    {
      "constant": true,
      "inputs": [],
      "name": "blood",
      "outputs": [
        {
          "name": "",
          "type": "string"
        }
      ],
      "payable": false,
      "stateMutability": "view",
      "type": "function",
      "signature": "0x97f8f0ec"
    },
    {
      "constant": true,
      "inputs": [],
      "name": "vacc",
      "outputs": [
        {
          "name": "",
          "type": "string"
        }
      ],
      "payable": false,
      "stateMutability": "view",
      "type": "function",
      "signature": "0x98c1eaf3"
    },
    {
      "constant": true,
      "inputs": [],
      "name": "mail",
      "outputs": [
        {
          "name": "",
          "type": "string"
        }
      ],
      "payable": false,
      "stateMutability": "view",
      "type": "function",
      "signature": "0x9a68308f"
    },
    {
      "constant": true,
      "inputs": [],
      "name": "phno",
      "outputs": [
        {
          "name": "",
          "type": "string"
        }
      ],
      "payable": false,
      "stateMutability": "view",
      "type": "function",
      "signature": "0x9e96883d"
    },
    {
      "constant": true,
      "inputs": [
        {
          "name": "",
          "type": "uint256"
        }
      ],
      "name": "mforms",
      "outputs": [
        {
          "name": "formname",
          "type": "string"
        }
      ],
      "payable": false,
      "stateMutability": "view",
      "type": "function",
      "signature": "0xa1787db5"
    },
    {
      "constant": true,
      "inputs": [],
      "name": "weight",
      "outputs": [
        {
          "name": "",
          "type": "string"
        }
      ],
      "payable": false,
      "stateMutability": "view",
      "type": "function",
      "signature": "0xa1aab33f"
    },
    {
      "constant": true,
      "inputs": [],
      "name": "ex",
      "outputs": [
        {
          "name": "",
          "type": "string"
        }
      ],
      "payable": false,
      "stateMutability": "view",
      "type": "function",
      "signature": "0xe1c34549"
    },
    {
      "constant": true,
      "inputs": [],
      "name": "trav",
      "outputs": [
        {
          "name": "",
          "type": "string"
        }
      ],
      "payable": false,
      "stateMutability": "view",
      "type": "function",
      "signature": "0xff4cb445"
    },
    {
      "inputs": [],
      "payable": false,
      "stateMutability": "nonpayable",
      "type": "constructor",
      "signature": "constructor"
    },
    {
      "anonymous": false,
      "inputs": [
        {
          "indexed": false,
          "name": "id",
          "type": "uint256"
        },
        {
          "indexed": false,
          "name": "hash",
          "type": "string"
        },
        {
          "indexed": false,
          "name": "description",
          "type": "string"
        },
        {
          "indexed": false,
          "name": "tipAmount",
          "type": "uint256"
        },
        {
          "indexed": false,
          "name": "author",
          "type": "address"
        }
      ],
      "name": "ImageCreated",
      "type": "event",
      "signature": "0xc1d8dfa99b3f84f95d3f0bc4a768addeb97b83b20aef7f9cb6729e126bafd2f9"
    },
    {
      "anonymous": false,
      "inputs": [
        {
          "indexed": false,
          "name": "id",
          "type": "uint256"
        },
        {
          "indexed": false,
          "name": "hash",
          "type": "string"
        },
        {
          "indexed": false,
          "name": "description",
          "type": "string"
        },
        {
          "indexed": false,
          "name": "tipAmount",
          "type": "uint256"
        },
        {
          "indexed": false,
          "name": "author",
          "type": "address"
        }
      ],
      "name": "DocCreated",
      "type": "event",
      "signature": "0x482217135058e854014aaee18e6d754e419c855f1ee108e1aa7c531049dffff0"
    },
    {
      "anonymous": false,
      "inputs": [
        {
          "indexed": false,
          "name": "id",
          "type": "uint256"
        },
        {
          "indexed": false,
          "name": "hash",
          "type": "string"
        },
        {
          "indexed": false,
          "name": "description",
          "type": "string"
        },
        {
          "indexed": false,
          "name": "tipAmount",
          "type": "uint256"
        },
        {
          "indexed": false,
          "name": "author",
          "type": "address"
        }
      ],
      "name": "ImageTipped",
      "type": "event",
      "signature": "0x1be5317bca8d3f70dc1efe89958be71bff36cdca33fc00a6423e25eb2f1d492f"
    },
    {
      "anonymous": false,
      "inputs": [
        {
          "indexed": false,
          "name": "name",
          "type": "string"
        },
        {
          "indexed": false,
          "name": "author",
          "type": "address"
        }
      ],
      "name": "NameCreated",
      "type": "event",
      "signature": "0x08b4c8af27fbcbcf557247224b89dddcdba81916cc5b733ed4abb75141eb12d0"
    },
    {
      "constant": false,
      "inputs": [],
      "name": "testfunc",
      "outputs": [
        {
          "name": "",
          "type": "string"
        }
      ],
      "payable": false,
      "stateMutability": "nonpayable",
      "type": "function",
      "signature": "0x0b39dbc6"
    },
    {
      "constant": false,
      "inputs": [
        {
          "name": "_imgHash",
          "type": "string"
        },
        {
          "name": "_description",
          "type": "string"
        }
      ],
      "name": "uploadImage",
      "outputs": [],
      "payable": false,
      "stateMutability": "nonpayable",
      "type": "function",
      "signature": "0xa91b8314"
    },
    {
      "constant": false,
      "inputs": [
        {
          "name": "_name",
          "type": "string"
        }
      ],
      "name": "uploadName",
      "outputs": [
        {
          "name": "",
          "type": "string"
        }
      ],
      "payable": false,
      "stateMutability": "nonpayable",
      "type": "function",
      "signature": "0x30019dca"
    },
    {
      "constant": false,
      "inputs": [
        {
          "name": "_name",
          "type": "string"
        }
      ],
      "name": "uploadMail",
      "outputs": [
        {
          "name": "",
          "type": "string"
        }
      ],
      "payable": false,
      "stateMutability": "nonpayable",
      "type": "function",
      "signature": "0x64ad50d5"
    },
    {
      "constant": false,
      "inputs": [
        {
          "name": "_name",
          "type": "string"
        }
      ],
      "name": "uploadPhno",
      "outputs": [
        {
          "name": "",
          "type": "string"
        }
      ],
      "payable": false,
      "stateMutability": "nonpayable",
      "type": "function",
      "signature": "0xcee481cf"
    },
    {
      "constant": false,
      "inputs": [
        {
          "name": "_name",
          "type": "string"
        }
      ],
      "name": "uploadGender",
      "outputs": [
        {
          "name": "",
          "type": "string"
        }
      ],
      "payable": false,
      "stateMutability": "nonpayable",
      "type": "function",
      "signature": "0x3ae91160"
    },
    {
      "constant": false,
      "inputs": [
        {
          "name": "_name",
          "type": "string"
        }
      ],
      "name": "uploadDob",
      "outputs": [
        {
          "name": "",
          "type": "string"
        }
      ],
      "payable": false,
      "stateMutability": "nonpayable",
      "type": "function",
      "signature": "0xc7131a1e"
    },
    {
      "constant": false,
      "inputs": [
        {
          "name": "_name",
          "type": "string"
        }
      ],
      "name": "uploadHeight",
      "outputs": [
        {
          "name": "",
          "type": "string"
        }
      ],
      "payable": false,
      "stateMutability": "nonpayable",
      "type": "function",
      "signature": "0xd807991f"
    },
    {
      "constant": false,
      "inputs": [
        {
          "name": "_name",
          "type": "string"
        }
      ],
      "name": "uploadWeight",
      "outputs": [
        {
          "name": "",
          "type": "string"
        }
      ],
      "payable": false,
      "stateMutability": "nonpayable",
      "type": "function",
      "signature": "0xadeddda9"
    },
    {
      "constant": false,
      "inputs": [
        {
          "name": "_name",
          "type": "string"
        }
      ],
      "name": "uploadBg",
      "outputs": [
        {
          "name": "",
          "type": "string"
        }
      ],
      "payable": false,
      "stateMutability": "nonpayable",
      "type": "function",
      "signature": "0xd008b025"
    },
    {
      "constant": false,
      "inputs": [
        {
          "name": "_name",
          "type": "string"
        }
      ],
      "name": "uploadVacc",
      "outputs": [
        {
          "name": "",
          "type": "string"
        }
      ],
      "payable": false,
      "stateMutability": "nonpayable",
      "type": "function",
      "signature": "0x3ed84b85"
    },
    {
      "constant": false,
      "inputs": [
        {
          "name": "_name",
          "type": "string"
        }
      ],
      "name": "uploadAller",
      "outputs": [
        {
          "name": "",
          "type": "string"
        }
      ],
      "payable": false,
      "stateMutability": "nonpayable",
      "type": "function",
      "signature": "0xbf154211"
    },
    {
      "constant": false,
      "inputs": [
        {
          "name": "_name",
          "type": "string"
        }
      ],
      "name": "uploadPres",
      "outputs": [
        {
          "name": "",
          "type": "string"
        }
      ],
      "payable": false,
      "stateMutability": "nonpayable",
      "type": "function",
      "signature": "0xeb0cb78c"
    },
    {
      "constant": false,
      "inputs": [
        {
          "name": "_name",
          "type": "string"
        }
      ],
      "name": "uploadSym",
      "outputs": [
        {
          "name": "",
          "type": "string"
        }
      ],
      "payable": false,
      "stateMutability": "nonpayable",
      "type": "function",
      "signature": "0xa020520c"
    },
    {
      "constant": false,
      "inputs": [
        {
          "name": "_name",
          "type": "string"
        }
      ],
      "name": "uploadTrav",
      "outputs": [
        {
          "name": "",
          "type": "string"
        }
      ],
      "payable": false,
      "stateMutability": "nonpayable",
      "type": "function",
      "signature": "0x72cb6d9a"
    },
    {
      "constant": false,
      "inputs": [
        {
          "name": "_name",
          "type": "string"
        }
      ],
      "name": "uploadHist",
      "outputs": [
        {
          "name": "",
          "type": "string"
        }
      ],
      "payable": false,
      "stateMutability": "nonpayable",
      "type": "function",
      "signature": "0x0e318370"
    },
    {
      "constant": false,
      "inputs": [
        {
          "name": "_name",
          "type": "string"
        }
      ],
      "name": "uploadEmNam",
      "outputs": [
        {
          "name": "",
          "type": "string"
        }
      ],
      "payable": false,
      "stateMutability": "nonpayable",
      "type": "function",
      "signature": "0x975b0f41"
    },
    {
      "constant": false,
      "inputs": [
        {
          "name": "_name",
          "type": "string"
        }
      ],
      "name": "uploadEmNo",
      "outputs": [
        {
          "name": "",
          "type": "string"
        }
      ],
      "payable": false,
      "stateMutability": "nonpayable",
      "type": "function",
      "signature": "0x540b495b"
    },
    {
      "constant": false,
      "inputs": [
        {
          "name": "_name",
          "type": "string"
        }
      ],
      "name": "uploadExt",
      "outputs": [
        {
          "name": "",
          "type": "string"
        }
      ],
      "payable": false,
      "stateMutability": "nonpayable",
      "type": "function",
      "signature": "0x3e506b80"
    },
    {
      "constant": false,
      "inputs": [
        {
          "name": "_docHash",
          "type": "string"
        },
        {
          "name": "_description",
          "type": "string"
        }
      ],
      "name": "uploadDoc",
      "outputs": [],
      "payable": false,
      "stateMutability": "nonpayable",
      "type": "function",
      "signature": "0x2887425c"
    },
    {
      "constant": false,
      "inputs": [
        {
          "name": "_id",
          "type": "uint256"
        }
      ],
      "name": "tipImageOwner",
      "outputs": [],
      "payable": true,
      "stateMutability": "payable",
      "type": "function",
      "signature": "0x8567ade8"
    }
  ],
  "bytecode": "0x60806040526000600155600060025560006003556040805190810160405280600a81526020017f756e616e737765726564000000000000000000000000000000000000000000008152506007908051906020019062000060929190620005a3565b506040805190810160405280600a81526020017f756e616e7377657265640000000000000000000000000000000000000000000081525060089080519060200190620000ae929190620005a3565b506040805190810160405280600a81526020017f756e616e7377657265640000000000000000000000000000000000000000000081525060099080519060200190620000fc929190620005a3565b506040805190810160405280600a81526020017f756e616e73776572656400000000000000000000000000000000000000000000815250600a90805190602001906200014a929190620005a3565b506040805190810160405280600a81526020017f756e616e73776572656400000000000000000000000000000000000000000000815250600b908051906020019062000198929190620005a3565b506040805190810160405280600a81526020017f756e616e73776572656400000000000000000000000000000000000000000000815250600c9080519060200190620001e6929190620005a3565b506040805190810160405280600a81526020017f756e616e73776572656400000000000000000000000000000000000000000000815250600d908051906020019062000234929190620005a3565b506040805190810160405280600a81526020017f756e616e73776572656400000000000000000000000000000000000000000000815250600e908051906020019062000282929190620005a3565b506040805190810160405280600a81526020017f756e616e73776572656400000000000000000000000000000000000000000000815250600f9080519060200190620002d0929190620005a3565b506040805190810160405280600a81526020017f756e616e73776572656400000000000000000000000000000000000000000000815250601090805190602001906200031e929190620005a3565b506040805190810160405280600a81526020017f756e616e73776572656400000000000000000000000000000000000000000000815250601190805190602001906200036c929190620005a3565b506040805190810160405280600a81526020017f756e616e7377657265640000000000000000000000000000000000000000000081525060129080519060200190620003ba929190620005a3565b506040805190810160405280600a81526020017f756e616e737765726564000000000000000000000000000000000000000000008152506013908051906020019062000408929190620005a3565b506040805190810160405280600a81526020017f756e616e737765726564000000000000000000000000000000000000000000008152506014908051906020019062000456929190620005a3565b506040805190810160405280600a81526020017f756e616e7377657265640000000000000000000000000000000000000000000081525060159080519060200190620004a4929190620005a3565b506040805190810160405280600a81526020017f756e616e7377657265640000000000000000000000000000000000000000000081525060169080519060200190620004f2929190620005a3565b506040805190810160405280600a81526020017f756e616e737765726564000000000000000000000000000000000000000000008152506017908051906020019062000540929190620005a3565b503480156200054e57600080fd5b506040805190810160405280600f81526020017f54756d626c72436c6f6e65446170700000000000000000000000000000000000815250600090805190602001906200059c929190620005a3565b5062000652565b828054600181600116156101000203166002900490600052602060002090601f016020900481019282601f10620005e657805160ff191683800117855562000617565b8280016001018555821562000617579182015b8281111562000616578251825591602001919060010190620005f9565b5b5090506200062691906200062a565b5090565b6200064f91905b808211156200064b57600081600090555060010162000631565b5090565b90565b615c2780620006626000396000f3fe608060405260043610610230576000357c0100000000000000000000000000000000000000000000000000000000900463ffffffff16806306fdde0314610235578063077a5c7d146102c55780630b39dbc6146103555780630e318370146103e55780630ef267431461052657806310c4e8b0146105b657806323389c5a146106465780632887425c146107a75780632e029c0f1461090657806330019dca14610996578063323046b114610ad75780633655aa0014610b675780633ae9116014610bf75780633e506b8014610d385780633ed84b8514610e795780634c4dc6e014610fba578063540b495b14610fe55780635586fab21461112657806364ad50d5146111b6578063690fa5f2146112f757806372cb6d9a1461132257806379caad861461146357806383813a28146114f357806384856482146115835780638567ade8146116e45780638ef490ea1461171257806392053b63146117a25780639449834f146117cd578063975b0f411461185d57806397f8f0ec1461199e57806398c1eaf314611a2e5780639a68308f14611abe5780639e96883d14611b4e578063a020520c14611bde578063a1787db514611d1f578063a1aab33f14611dd3578063a91b831414611e63578063adeddda914611fc2578063bf15421114612103578063c7131a1e14612244578063cee481cf14612385578063d008b025146124c6578063d807991f14612607578063e1c3454914612748578063eb0cb78c146127d8578063ff4cb44514612919575b600080fd5b34801561024157600080fd5b5061024a6129a9565b6040518080602001828103825283818151815260200191508051906020019080838360005b8381101561028a57808201518184015260208101905061026f565b50505050905090810190601f1680156102b75780820380516001836020036101000a031916815260200191505b509250505060405180910390f35b3480156102d157600080fd5b506102da612a47565b6040518080602001828103825283818151815260200191508051906020019080838360005b8381101561031a5780820151818401526020810190506102ff565b50505050905090810190601f1680156103475780820380516001836020036101000a031916815260200191505b509250505060405180910390f35b34801561036157600080fd5b5061036a612ae5565b6040518080602001828103825283818151815260200191508051906020019080838360005b838110156103aa57808201518184015260208101905061038f565b50505050905090810190601f1680156103d75780820380516001836020036101000a031916815260200191505b509250505060405180910390f35b3480156103f157600080fd5b506104ab6004803603602081101561040857600080fd5b810190808035906020019064010000000081111561042557600080fd5b82018360208201111561043757600080fd5b8035906020019184600183028401116401000000008311171561045957600080fd5b91908080601f016020809104026020016040519081016040528093929190818152602001838380828437600081840152601f19601f820116905080830192505050505050509192919290505050612b87565b6040518080602001828103825283818151815260200191508051906020019080838360005b838110156104eb5780820151818401526020810190506104d0565b50505050905090810190601f1680156105185780820380516001836020036101000a031916815260200191505b509250505060405180910390f35b34801561053257600080fd5b5061053b612ce5565b6040518080602001828103825283818151815260200191508051906020019080838360005b8381101561057b578082015181840152602081019050610560565b50505050905090810190601f1680156105a85780820380516001836020036101000a031916815260200191505b509250505060405180910390f35b3480156105c257600080fd5b506105cb612d83565b6040518080602001828103825283818151815260200191508051906020019080838360005b8381101561060b5780820151818401526020810190506105f0565b50505050905090810190601f1680156106385780820380516001836020036101000a031916815260200191505b509250505060405180910390f35b34801561065257600080fd5b5061067f6004803603602081101561066957600080fd5b8101908080359060200190929190505050612e21565b6040518086815260200180602001806020018581526020018473ffffffffffffffffffffffffffffffffffffffff1673ffffffffffffffffffffffffffffffffffffffff168152602001838103835287818151815260200191508051906020019080838360005b838110156107015780820151818401526020810190506106e6565b50505050905090810190601f16801561072e5780820380516001836020036101000a031916815260200191505b50838103825286818151815260200191508051906020019080838360005b8381101561076757808201518184015260208101905061074c565b50505050905090810190601f1680156107945780820380516001836020036101000a031916815260200191505b5097505050505050505060405180910390f35b3480156107b357600080fd5b50610904600480360360408110156107ca57600080fd5b81019080803590602001906401000000008111156107e757600080fd5b8201836020820111156107f957600080fd5b8035906020019184600183028401116401000000008311171561081b57600080fd5b91908080601f016020809104026020016040519081016040528093929190818152602001838380828437600081840152601f19601f8201169050808301925050505050505091929192908035906020019064010000000081111561087e57600080fd5b82018360208201111561089057600080fd5b803590602001918460018302840111640100000000831117156108b257600080fd5b91908080601f016020809104026020016040519081016040528093929190818152602001838380828437600081840152601f19601f820116905080830192505050505050509192919290505050612fa7565b005b34801561091257600080fd5b5061091b613107565b6040518080602001828103825283818151815260200191508051906020019080838360005b8381101561095b578082015181840152602081019050610940565b50505050905090810190601f1680156109885780820380516001836020036101000a031916815260200191505b509250505060405180910390f35b3480156109a257600080fd5b50610a5c600480360360208110156109b957600080fd5b81019080803590602001906401000000008111156109d657600080fd5b8201836020820111156109e857600080fd5b80359060200191846001830284011164010000000083111715610a0a57600080fd5b91908080601f016020809104026020016040519081016040528093929190818152602001838380828437600081840152601f19601f8201169050808301925050505050505091929192905050506131a5565b6040518080602001828103825283818151815260200191508051906020019080838360005b83811015610a9c578082015181840152602081019050610a81565b50505050905090810190601f168015610ac95780820380516001836020036101000a031916815260200191505b509250505060405180910390f35b348015610ae357600080fd5b50610aec6133d3565b6040518080602001828103825283818151815260200191508051906020019080838360005b83811015610b2c578082015181840152602081019050610b11565b50505050905090810190601f168015610b595780820380516001836020036101000a031916815260200191505b509250505060405180910390f35b348015610b7357600080fd5b50610b7c613471565b6040518080602001828103825283818151815260200191508051906020019080838360005b83811015610bbc578082015181840152602081019050610ba1565b50505050905090810190601f168015610be95780820380516001836020036101000a031916815260200191505b509250505060405180910390f35b348015610c0357600080fd5b50610cbd60048036036020811015610c1a57600080fd5b8101908080359060200190640100000000811115610c3757600080fd5b820183602082011115610c4957600080fd5b80359060200191846001830284011164010000000083111715610c6b57600080fd5b91908080601f016020809104026020016040519081016040528093929190818152602001838380828437600081840152601f19601f82011690508083019250505050505050919291929050505061350f565b6040518080602001828103825283818151815260200191508051906020019080838360005b83811015610cfd578082015181840152602081019050610ce2565b50505050905090810190601f168015610d2a5780820380516001836020036101000a031916815260200191505b509250505060405180910390f35b348015610d4457600080fd5b50610dfe60048036036020811015610d5b57600080fd5b8101908080359060200190640100000000811115610d7857600080fd5b820183602082011115610d8a57600080fd5b80359060200191846001830284011164010000000083111715610dac57600080fd5b91908080601f016020809104026020016040519081016040528093929190818152602001838380828437600081840152601f19601f82011690508083019250505050505050919291929050505061373d565b6040518080602001828103825283818151815260200191508051906020019080838360005b83811015610e3e578082015181840152602081019050610e23565b50505050905090810190601f168015610e6b5780820380516001836020036101000a031916815260200191505b509250505060405180910390f35b348015610e8557600080fd5b50610f3f60048036036020811015610e9c57600080fd5b8101908080359060200190640100000000811115610eb957600080fd5b820183602082011115610ecb57600080fd5b80359060200191846001830284011164010000000083111715610eed57600080fd5b91908080601f016020809104026020016040519081016040528093929190818152602001838380828437600081840152601f19601f82011690508083019250505050505050919291929050505061389b565b6040518080602001828103825283818151815260200191508051906020019080838360005b83811015610f7f578082015181840152602081019050610f64565b50505050905090810190601f168015610fac5780820380516001836020036101000a031916815260200191505b509250505060405180910390f35b348015610fc657600080fd5b50610fcf6139f9565b6040518082815260200191505060405180910390f35b348015610ff157600080fd5b506110ab6004803603602081101561100857600080fd5b810190808035906020019064010000000081111561102557600080fd5b82018360208201111561103757600080fd5b8035906020019184600183028401116401000000008311171561105957600080fd5b91908080601f016020809104026020016040519081016040528093929190818152602001838380828437600081840152601f19601f8201169050808301925050505050505091929192905050506139ff565b6040518080602001828103825283818151815260200191508051906020019080838360005b838110156110eb5780820151818401526020810190506110d0565b50505050905090810190601f1680156111185780820380516001836020036101000a031916815260200191505b509250505060405180910390f35b34801561113257600080fd5b5061113b613b5d565b6040518080602001828103825283818151815260200191508051906020019080838360005b8381101561117b578082015181840152602081019050611160565b50505050905090810190601f1680156111a85780820380516001836020036101000a031916815260200191505b509250505060405180910390f35b3480156111c257600080fd5b5061127c600480360360208110156111d957600080fd5b81019080803590602001906401000000008111156111f657600080fd5b82018360208201111561120857600080fd5b8035906020019184600183028401116401000000008311171561122a57600080fd5b91908080601f016020809104026020016040519081016040528093929190818152602001838380828437600081840152601f19601f820116905080830192505050505050509192919290505050613c01565b6040518080602001828103825283818151815260200191508051906020019080838360005b838110156112bc5780820151818401526020810190506112a1565b50505050905090810190601f1680156112e95780820380516001836020036101000a031916815260200191505b509250505060405180910390f35b34801561130357600080fd5b5061130c613d4d565b6040518082815260200191505060405180910390f35b34801561132e57600080fd5b506113e86004803603602081101561134557600080fd5b810190808035906020019064010000000081111561136257600080fd5b82018360208201111561137457600080fd5b8035906020019184600183028401116401000000008311171561139657600080fd5b91908080601f016020809104026020016040519081016040528093929190818152602001838380828437600081840152601f19601f820116905080830192505050505050509192919290505050613d53565b6040518080602001828103825283818151815260200191508051906020019080838360005b8381101561142857808201518184015260208101905061140d565b50505050905090810190601f1680156114555780820380516001836020036101000a031916815260200191505b509250505060405180910390f35b34801561146f57600080fd5b50611478613eb1565b6040518080602001828103825283818151815260200191508051906020019080838360005b838110156114b857808201518184015260208101905061149d565b50505050905090810190601f1680156114e55780820380516001836020036101000a031916815260200191505b509250505060405180910390f35b3480156114ff57600080fd5b50611508613f4f565b6040518080602001828103825283818151815260200191508051906020019080838360005b8381101561154857808201518184015260208101905061152d565b50505050905090810190601f1680156115755780820380516001836020036101000a031916815260200191505b509250505060405180910390f35b34801561158f57600080fd5b506115bc600480360360208110156115a657600080fd5b8101908080359060200190929190505050613fed565b6040518086815260200180602001806020018581526020018473ffffffffffffffffffffffffffffffffffffffff1673ffffffffffffffffffffffffffffffffffffffff168152602001838103835287818151815260200191508051906020019080838360005b8381101561163e578082015181840152602081019050611623565b50505050905090810190601f16801561166b5780820380516001836020036101000a031916815260200191505b50838103825286818151815260200191508051906020019080838360005b838110156116a4578082015181840152602081019050611689565b50505050905090810190601f1680156116d15780820380516001836020036101000a031916815260200191505b5097505050505050505060405180910390f35b611710600480360360208110156116fa57600080fd5b8101908080359060200190929190505050614173565b005b34801561171e57600080fd5b50611727614478565b6040518080602001828103825283818151815260200191508051906020019080838360005b8381101561176757808201518184015260208101905061174c565b50505050905090810190601f1680156117945780820380516001836020036101000a031916815260200191505b509250505060405180910390f35b3480156117ae57600080fd5b506117b7614516565b6040518082815260200191505060405180910390f35b3480156117d957600080fd5b506117e261451c565b6040518080602001828103825283818151815260200191508051906020019080838360005b83811015611822578082015181840152602081019050611807565b50505050905090810190601f16801561184f5780820380516001836020036101000a031916815260200191505b509250505060405180910390f35b34801561186957600080fd5b506119236004803603602081101561188057600080fd5b810190808035906020019064010000000081111561189d57600080fd5b8201836020820111156118af57600080fd5b803590602001918460018302840111640100000000831117156118d157600080fd5b91908080601f016020809104026020016040519081016040528093929190818152602001838380828437600081840152601f19601f8201169050808301925050505050505091929192905050506145ba565b6040518080602001828103825283818151815260200191508051906020019080838360005b83811015611963578082015181840152602081019050611948565b50505050905090810190601f1680156119905780820380516001836020036101000a031916815260200191505b509250505060405180910390f35b3480156119aa57600080fd5b506119b3614718565b6040518080602001828103825283818151815260200191508051906020019080838360005b838110156119f35780820151818401526020810190506119d8565b50505050905090810190601f168015611a205780820380516001836020036101000a031916815260200191505b509250505060405180910390f35b348015611a3a57600080fd5b50611a436147b6565b6040518080602001828103825283818151815260200191508051906020019080838360005b83811015611a83578082015181840152602081019050611a68565b50505050905090810190601f168015611ab05780820380516001836020036101000a031916815260200191505b509250505060405180910390f35b348015611aca57600080fd5b50611ad3614854565b6040518080602001828103825283818151815260200191508051906020019080838360005b83811015611b13578082015181840152602081019050611af8565b50505050905090810190601f168015611b405780820380516001836020036101000a031916815260200191505b509250505060405180910390f35b348015611b5a57600080fd5b50611b636148f2565b6040518080602001828103825283818151815260200191508051906020019080838360005b83811015611ba3578082015181840152602081019050611b88565b50505050905090810190601f168015611bd05780820380516001836020036101000a031916815260200191505b509250505060405180910390f35b348015611bea57600080fd5b50611ca460048036036020811015611c0157600080fd5b8101908080359060200190640100000000811115611c1e57600080fd5b820183602082011115611c3057600080fd5b80359060200191846001830284011164010000000083111715611c5257600080fd5b91908080601f016020809104026020016040519081016040528093929190818152602001838380828437600081840152601f19601f820116905080830192505050505050509192919290505050614990565b6040518080602001828103825283818151815260200191508051906020019080838360005b83811015611ce4578082015181840152602081019050611cc9565b50505050905090810190601f168015611d115780820380516001836020036101000a031916815260200191505b509250505060405180910390f35b348015611d2b57600080fd5b50611d5860048036036020811015611d4257600080fd5b8101908080359060200190929190505050614aee565b6040518080602001828103825283818151815260200191508051906020019080838360005b83811015611d98578082015181840152602081019050611d7d565b50505050905090810190601f168015611dc55780820380516001836020036101000a031916815260200191505b509250505060405180910390f35b348015611ddf57600080fd5b50611de8614ba4565b6040518080602001828103825283818151815260200191508051906020019080838360005b83811015611e28578082015181840152602081019050611e0d565b50505050905090810190601f168015611e555780820380516001836020036101000a031916815260200191505b509250505060405180910390f35b348015611e6f57600080fd5b50611fc060048036036040811015611e8657600080fd5b8101908080359060200190640100000000811115611ea357600080fd5b820183602082011115611eb557600080fd5b80359060200191846001830284011164010000000083111715611ed757600080fd5b91908080601f016020809104026020016040519081016040528093929190818152602001838380828437600081840152601f19601f82011690508083019250505050505050919291929080359060200190640100000000811115611f3a57600080fd5b820183602082011115611f4c57600080fd5b80359060200191846001830284011164010000000083111715611f6e57600080fd5b91908080601f016020809104026020016040519081016040528093929190818152602001838380828437600081840152601f19601f820116905080830192505050505050509192919290505050614c42565b005b348015611fce57600080fd5b5061208860048036036020811015611fe557600080fd5b810190808035906020019064010000000081111561200257600080fd5b82018360208201111561201457600080fd5b8035906020019184600183028401116401000000008311171561203657600080fd5b91908080601f016020809104026020016040519081016040528093929190818152602001838380828437600081840152601f19601f820116905080830192505050505050509192919290505050614ef2565b6040518080602001828103825283818151815260200191508051906020019080838360005b838110156120c85780820151818401526020810190506120ad565b50505050905090810190601f1680156120f55780820380516001836020036101000a031916815260200191505b509250505060405180910390f35b34801561210f57600080fd5b506121c96004803603602081101561212657600080fd5b810190808035906020019064010000000081111561214357600080fd5b82018360208201111561215557600080fd5b8035906020019184600183028401116401000000008311171561217757600080fd5b91908080601f016020809104026020016040519081016040528093929190818152602001838380828437600081840152601f19601f820116905080830192505050505050509192919290505050615050565b6040518080602001828103825283818151815260200191508051906020019080838360005b838110156122095780820151818401526020810190506121ee565b50505050905090810190601f1680156122365780820380516001836020036101000a031916815260200191505b509250505060405180910390f35b34801561225057600080fd5b5061230a6004803603602081101561226757600080fd5b810190808035906020019064010000000081111561228457600080fd5b82018360208201111561229657600080fd5b803590602001918460018302840111640100000000831117156122b857600080fd5b91908080601f016020809104026020016040519081016040528093929190818152602001838380828437600081840152601f19601f8201169050808301925050505050505091929192905050506151ae565b6040518080602001828103825283818151815260200191508051906020019080838360005b8381101561234a57808201518184015260208101905061232f565b50505050905090810190601f1680156123775780820380516001836020036101000a031916815260200191505b509250505060405180910390f35b34801561239157600080fd5b5061244b600480360360208110156123a857600080fd5b81019080803590602001906401000000008111156123c557600080fd5b8201836020820111156123d757600080fd5b803590602001918460018302840111640100000000831117156123f957600080fd5b91908080601f016020809104026020016040519081016040528093929190818152602001838380828437600081840152601f19601f82011690508083019250505050505050919291929050505061530c565b6040518080602001828103825283818151815260200191508051906020019080838360005b8381101561248b578082015181840152602081019050612470565b50505050905090810190601f1680156124b85780820380516001836020036101000a031916815260200191505b509250505060405180910390f35b3480156124d257600080fd5b5061258c600480360360208110156124e957600080fd5b810190808035906020019064010000000081111561250657600080fd5b82018360208201111561251857600080fd5b8035906020019184600183028401116401000000008311171561253a57600080fd5b91908080601f016020809104026020016040519081016040528093929190818152602001838380828437600081840152601f19601f82011690508083019250505050505050919291929050505061553a565b6040518080602001828103825283818151815260200191508051906020019080838360005b838110156125cc5780820151818401526020810190506125b1565b50505050905090810190601f1680156125f95780820380516001836020036101000a031916815260200191505b509250505060405180910390f35b34801561261357600080fd5b506126cd6004803603602081101561262a57600080fd5b810190808035906020019064010000000081111561264757600080fd5b82018360208201111561265957600080fd5b8035906020019184600183028401116401000000008311171561267b57600080fd5b91908080601f016020809104026020016040519081016040528093929190818152602001838380828437600081840152601f19601f820116905080830192505050505050509192919290505050615698565b6040518080602001828103825283818151815260200191508051906020019080838360005b8381101561270d5780820151818401526020810190506126f2565b50505050905090810190601f16801561273a5780820380516001836020036101000a031916815260200191505b509250505060405180910390f35b34801561275457600080fd5b5061275d6157f6565b6040518080602001828103825283818151815260200191508051906020019080838360005b8381101561279d578082015181840152602081019050612782565b50505050905090810190601f1680156127ca5780820380516001836020036101000a031916815260200191505b509250505060405180910390f35b3480156127e457600080fd5b5061289e600480360360208110156127fb57600080fd5b810190808035906020019064010000000081111561281857600080fd5b82018360208201111561282a57600080fd5b8035906020019184600183028401116401000000008311171561284c57600080fd5b91908080601f016020809104026020016040519081016040528093929190818152602001838380828437600081840152601f19601f820116905080830192505050505050509192919290505050615894565b6040518080602001828103825283818151815260200191508051906020019080838360005b838110156128de5780820151818401526020810190506128c3565b50505050905090810190601f16801561290b5780820380516001836020036101000a031916815260200191505b509250505060405180910390f35b34801561292557600080fd5b5061292e6159f2565b6040518080602001828103825283818151815260200191508051906020019080838360005b8381101561296e578082015181840152602081019050612953565b50505050905090810190601f16801561299b5780820380516001836020036101000a031916815260200191505b509250505060405180910390f35b60008054600181600116156101000203166002900480601f016020809104026020016040519081016040528092919081815260200182805460018160011615610100020316600290048015612a3f5780601f10612a1457610100808354040283529160200191612a3f565b820191906000526020600020905b815481529060010190602001808311612a2257829003601f168201915b505050505081565b60168054600181600116156101000203166002900480601f016020809104026020016040519081016040528092919081815260200182805460018160011615610100020316600290048015612add5780601f10612ab257610100808354040283529160200191612add565b820191906000526020600020905b815481529060010190602001808311612ac057829003601f168201915b505050505081565b606060078054600181600116156101000203166002900480601f016020809104026020016040519081016040528092919081815260200182805460018160011615610100020316600290048015612b7d5780601f10612b5257610100808354040283529160200191612b7d565b820191906000526020600020905b815481529060010190602001808311612b6057829003601f168201915b5050505050905090565b606060008251111515612b9957600080fd5b600360008154809291906001019190505550600073ffffffffffffffffffffffffffffffffffffffff163373ffffffffffffffffffffffffffffffffffffffff1614151515612be757600080fd5b602060405190810160405280838152506006600060035481526020019081526020016000206000820151816000019080519060200190612c28929190615a90565b509050508160149080519060200190612c42929190615b10565b5060148054600181600116156101000203166002900480601f016020809104026020016040519081016040528092919081815260200182805460018160011615610100020316600290048015612cd95780601f10612cae57610100808354040283529160200191612cd9565b820191906000526020600020905b815481529060010190602001808311612cbc57829003601f168201915b50505050509050919050565b600c8054600181600116156101000203166002900480601f016020809104026020016040519081016040528092919081815260200182805460018160011615610100020316600290048015612d7b5780601f10612d5057610100808354040283529160200191612d7b565b820191906000526020600020905b815481529060010190602001808311612d5e57829003601f168201915b505050505081565b60108054600181600116156101000203166002900480601f016020809104026020016040519081016040528092919081815260200182805460018160011615610100020316600290048015612e195780601f10612dee57610100808354040283529160200191612e19565b820191906000526020600020905b815481529060010190602001808311612dfc57829003601f168201915b505050505081565b6005602052806000526040600020600091509050806000015490806001018054600181600116156101000203166002900480601f016020809104026020016040519081016040528092919081815260200182805460018160011615610100020316600290048015612ed35780601f10612ea857610100808354040283529160200191612ed3565b820191906000526020600020905b815481529060010190602001808311612eb657829003601f168201915b505050505090806002018054600181600116156101000203166002900480601f016020809104026020016040519081016040528092919081815260200182805460018160011615610100020316600290048015612f715780601f10612f4657610100808354040283529160200191612f71565b820191906000526020600020905b815481529060010190602001808311612f5457829003601f168201915b5050505050908060030154908060040160009054906101000a900473ffffffffffffffffffffffffffffffffffffffff16905085565b60008251111515612fb757600080fd5b60008151111515612fc757600080fd5b600073ffffffffffffffffffffffffffffffffffffffff163373ffffffffffffffffffffffffffffffffffffffff161415151561300357600080fd5b60026000815480929190600101919050555060a0604051908101604052806002548152602001838152602001828152602001600081526020013373ffffffffffffffffffffffffffffffffffffffff16815250600560006002548152602001908152602001600020600082015181600001556020820151816001019080519060200190613091929190615a90565b5060408201518160020190805190602001906130ae929190615a90565b506060820151816003015560808201518160040160006101000a81548173ffffffffffffffffffffffffffffffffffffffff021916908373ffffffffffffffffffffffffffffffffffffffff1602179055509050505050565b60118054600181600116156101000203166002900480601f01602080910402602001604051908101604052809291908181526020018280546001816001161561010002031660029004801561319d5780601f106131725761010080835404028352916020019161319d565b820191906000526020600020905b81548152906001019060200180831161318057829003601f168201915b505050505081565b6060600082511115156131b757600080fd5b600360008154809291906001019190505550600073ffffffffffffffffffffffffffffffffffffffff163373ffffffffffffffffffffffffffffffffffffffff161415151561320557600080fd5b602060405190810160405280838152506006600060035481526020019081526020016000206000820151816000019080519060200190613246929190615a90565b509050508160079080519060200190613260929190615b10565b507f08b4c8af27fbcbcf557247224b89dddcdba81916cc5b733ed4abb75141eb12d0823360405180806020018373ffffffffffffffffffffffffffffffffffffffff1673ffffffffffffffffffffffffffffffffffffffff168152602001828103825284818151815260200191508051906020019080838360005b838110156132f65780820151818401526020810190506132db565b50505050905090810190601f1680156133235780820380516001836020036101000a031916815260200191505b50935050505060405180910390a160078054600181600116156101000203166002900480601f0160208091040260200160405190810160405280929190818152602001828054600181600116156101000203166002900480156133c75780601f1061339c576101008083540402835291602001916133c7565b820191906000526020600020905b8154815290600101906020018083116133aa57829003601f168201915b50505050509050919050565b600b8054600181600116156101000203166002900480601f0160208091040260200160405190810160405280929190818152602001828054600181600116156101000203166002900480156134695780601f1061343e57610100808354040283529160200191613469565b820191906000526020600020905b81548152906001019060200180831161344c57829003601f168201915b505050505081565b60158054600181600116156101000203166002900480601f0160208091040260200160405190810160405280929190818152602001828054600181600116156101000203166002900480156135075780601f106134dc57610100808354040283529160200191613507565b820191906000526020600020905b8154815290600101906020018083116134ea57829003601f168201915b505050505081565b60606000825111151561352157600080fd5b600360008154809291906001019190505550600073ffffffffffffffffffffffffffffffffffffffff163373ffffffffffffffffffffffffffffffffffffffff161415151561356f57600080fd5b6020604051908101604052808381525060066000600354815260200190815260200160002060008201518160000190805190602001906135b0929190615a90565b5090505081600a90805190602001906135ca929190615b10565b507f08b4c8af27fbcbcf557247224b89dddcdba81916cc5b733ed4abb75141eb12d0823360405180806020018373ffffffffffffffffffffffffffffffffffffffff1673ffffffffffffffffffffffffffffffffffffffff168152602001828103825284818151815260200191508051906020019080838360005b83811015613660578082015181840152602081019050613645565b50505050905090810190601f16801561368d5780820380516001836020036101000a031916815260200191505b50935050505060405180910390a1600a8054600181600116156101000203166002900480601f0160208091040260200160405190810160405280929190818152602001828054600181600116156101000203166002900480156137315780601f1061370657610100808354040283529160200191613731565b820191906000526020600020905b81548152906001019060200180831161371457829003601f168201915b50505050509050919050565b60606000825111151561374f57600080fd5b600360008154809291906001019190505550600073ffffffffffffffffffffffffffffffffffffffff163373ffffffffffffffffffffffffffffffffffffffff161415151561379d57600080fd5b6020604051908101604052808381525060066000600354815260200190815260200160002060008201518160000190805190602001906137de929190615a90565b5090505081601790805190602001906137f8929190615b10565b5060178054600181600116156101000203166002900480601f01602080910402602001604051908101604052809291908181526020018280546001816001161561010002031660029004801561388f5780601f106138645761010080835404028352916020019161388f565b820191906000526020600020905b81548152906001019060200180831161387257829003601f168201915b50505050509050919050565b6060600082511115156138ad57600080fd5b600360008154809291906001019190505550600073ffffffffffffffffffffffffffffffffffffffff163373ffffffffffffffffffffffffffffffffffffffff16141515156138fb57600080fd5b60206040519081016040528083815250600660006003548152602001908152602001600020600082015181600001908051906020019061393c929190615a90565b5090505081600f9080519060200190613956929190615b10565b50600f8054600181600116156101000203166002900480601f0160208091040260200160405190810160405280929190818152602001828054600181600116156101000203166002900480156139ed5780601f106139c2576101008083540402835291602001916139ed565b820191906000526020600020905b8154815290600101906020018083116139d057829003601f168201915b50505050509050919050565b60025481565b606060008251111515613a1157600080fd5b600360008154809291906001019190505550600073ffffffffffffffffffffffffffffffffffffffff163373ffffffffffffffffffffffffffffffffffffffff1614151515613a5f57600080fd5b602060405190810160405280838152506006600060035481526020019081526020016000206000820151816000019080519060200190613aa0929190615a90565b509050508160169080519060200190613aba929190615b10565b5060168054600181600116156101000203166002900480601f016020809104026020016040519081016040528092919081815260200182805460018160011615610100020316600290048015613b515780601f10613b2657610100808354040283529160200191613b51565b820191906000526020600020905b815481529060010190602001808311613b3457829003601f168201915b50505050509050919050565b6018806000018054600181600116156101000203166002900480601f016020809104026020016040519081016040528092919081815260200182805460018160011615610100020316600290048015613bf75780601f10613bcc57610100808354040283529160200191613bf7565b820191906000526020600020905b815481529060010190602001808311613bda57829003601f168201915b5050505050905081565b606060008251111515613c1357600080fd5b600073ffffffffffffffffffffffffffffffffffffffff163373ffffffffffffffffffffffffffffffffffffffff1614151515613c4f57600080fd5b602060405190810160405280838152506006600060035481526020019081526020016000206000820151816000019080519060200190613c90929190615a90565b509050508160089080519060200190613caa929190615b10565b5060088054600181600116156101000203166002900480601f016020809104026020016040519081016040528092919081815260200182805460018160011615610100020316600290048015613d415780601f10613d1657610100808354040283529160200191613d41565b820191906000526020600020905b815481529060010190602001808311613d2457829003601f168201915b50505050509050919050565b60035481565b606060008251111515613d6557600080fd5b600360008154809291906001019190505550600073ffffffffffffffffffffffffffffffffffffffff163373ffffffffffffffffffffffffffffffffffffffff1614151515613db357600080fd5b602060405190810160405280838152506006600060035481526020019081526020016000206000820151816000019080519060200190613df4929190615a90565b509050508160139080519060200190613e0e929190615b10565b5060138054600181600116156101000203166002900480601f016020809104026020016040519081016040528092919081815260200182805460018160011615610100020316600290048015613ea55780601f10613e7a57610100808354040283529160200191613ea5565b820191906000526020600020905b815481529060010190602001808311613e8857829003601f168201915b50505050509050919050565b600a8054600181600116156101000203166002900480601f016020809104026020016040519081016040528092919081815260200182805460018160011615610100020316600290048015613f475780601f10613f1c57610100808354040283529160200191613f47565b820191906000526020600020905b815481529060010190602001808311613f2a57829003601f168201915b505050505081565b60128054600181600116156101000203166002900480601f016020809104026020016040519081016040528092919081815260200182805460018160011615610100020316600290048015613fe55780601f10613fba57610100808354040283529160200191613fe5565b820191906000526020600020905b815481529060010190602001808311613fc857829003601f168201915b505050505081565b6004602052806000526040600020600091509050806000015490806001018054600181600116156101000203166002900480601f01602080910402602001604051908101604052809291908181526020018280546001816001161561010002031660029004801561409f5780601f106140745761010080835404028352916020019161409f565b820191906000526020600020905b81548152906001019060200180831161408257829003601f168201915b505050505090806002018054600181600116156101000203166002900480601f01602080910402602001604051908101604052809291908181526020018280546001816001161561010002031660029004801561413d5780601f106141125761010080835404028352916020019161413d565b820191906000526020600020905b81548152906001019060200180831161412057829003601f168201915b5050505050908060030154908060040160009054906101000a900473ffffffffffffffffffffffffffffffffffffffff16905085565b60008111801561418557506001548111155b151561419057600080fd5b614198615b90565b6004600083815260200190815260200160002060a0604051908101604052908160008201548152602001600182018054600181600116156101000203166002900480601f01602080910402602001604051908101604052809291908181526020018280546001816001161561010002031660029004801561425a5780601f1061422f5761010080835404028352916020019161425a565b820191906000526020600020905b81548152906001019060200180831161423d57829003601f168201915b50505050508152602001600282018054600181600116156101000203166002900480601f0160208091040260200160405190810160405280929190818152602001828054600181600116156101000203166002900480156142fc5780601f106142d1576101008083540402835291602001916142fc565b820191906000526020600020905b8154815290600101906020018083116142df57829003601f168201915b50505050508152602001600382015481526020016004820160009054906101000a900473ffffffffffffffffffffffffffffffffffffffff1673ffffffffffffffffffffffffffffffffffffffff1673ffffffffffffffffffffffffffffffffffffffff168152505090506000816080015190508073ffffffffffffffffffffffffffffffffffffffff166108fc349081150290604051600060405180830381858888f193505050501580156143b6573d6000803e3d6000fd5b50348260600151018260600181815250508160046000858152602001908152602001600020600082015181600001556020820151816001019080519060200190614401929190615a90565b50604082015181600201908051906020019061441e929190615a90565b506060820151816003015560808201518160040160006101000a81548173ffffffffffffffffffffffffffffffffffffffff021916908373ffffffffffffffffffffffffffffffffffffffff160217905550905050505050565b60078054600181600116156101000203166002900480601f01602080910402602001604051908101604052809291908181526020018280546001816001161561010002031660029004801561450e5780601f106144e35761010080835404028352916020019161450e565b820191906000526020600020905b8154815290600101906020018083116144f157829003601f168201915b505050505081565b60015481565b60148054600181600116156101000203166002900480601f0160208091040260200160405190810160405280929190818152602001828054600181600116156101000203166002900480156145b25780601f10614587576101008083540402835291602001916145b2565b820191906000526020600020905b81548152906001019060200180831161459557829003601f168201915b505050505081565b6060600082511115156145cc57600080fd5b600360008154809291906001019190505550600073ffffffffffffffffffffffffffffffffffffffff163373ffffffffffffffffffffffffffffffffffffffff161415151561461a57600080fd5b60206040519081016040528083815250600660006003548152602001908152602001600020600082015181600001908051906020019061465b929190615a90565b509050508160159080519060200190614675929190615b10565b5060158054600181600116156101000203166002900480601f01602080910402602001604051908101604052809291908181526020018280546001816001161561010002031660029004801561470c5780601f106146e15761010080835404028352916020019161470c565b820191906000526020600020905b8154815290600101906020018083116146ef57829003601f168201915b50505050509050919050565b600e8054600181600116156101000203166002900480601f0160208091040260200160405190810160405280929190818152602001828054600181600116156101000203166002900480156147ae5780601f10614783576101008083540402835291602001916147ae565b820191906000526020600020905b81548152906001019060200180831161479157829003601f168201915b505050505081565b600f8054600181600116156101000203166002900480601f01602080910402602001604051908101604052809291908181526020018280546001816001161561010002031660029004801561484c5780601f106148215761010080835404028352916020019161484c565b820191906000526020600020905b81548152906001019060200180831161482f57829003601f168201915b505050505081565b60088054600181600116156101000203166002900480601f0160208091040260200160405190810160405280929190818152602001828054600181600116156101000203166002900480156148ea5780601f106148bf576101008083540402835291602001916148ea565b820191906000526020600020905b8154815290600101906020018083116148cd57829003601f168201915b505050505081565b60098054600181600116156101000203166002900480601f0160208091040260200160405190810160405280929190818152602001828054600181600116156101000203166002900480156149885780601f1061495d57610100808354040283529160200191614988565b820191906000526020600020905b81548152906001019060200180831161496b57829003601f168201915b505050505081565b6060600082511115156149a257600080fd5b600360008154809291906001019190505550600073ffffffffffffffffffffffffffffffffffffffff163373ffffffffffffffffffffffffffffffffffffffff16141515156149f057600080fd5b602060405190810160405280838152506006600060035481526020019081526020016000206000820151816000019080519060200190614a31929190615a90565b509050508160129080519060200190614a4b929190615b10565b5060128054600181600116156101000203166002900480601f016020809104026020016040519081016040528092919081815260200182805460018160011615610100020316600290048015614ae25780601f10614ab757610100808354040283529160200191614ae2565b820191906000526020600020905b815481529060010190602001808311614ac557829003601f168201915b50505050509050919050565b6006602052806000526040600020600091509050806000018054600181600116156101000203166002900480601f016020809104026020016040519081016040528092919081815260200182805460018160011615610100020316600290048015614b9a5780601f10614b6f57610100808354040283529160200191614b9a565b820191906000526020600020905b815481529060010190602001808311614b7d57829003601f168201915b5050505050905081565b600d8054600181600116156101000203166002900480601f016020809104026020016040519081016040528092919081815260200182805460018160011615610100020316600290048015614c3a5780601f10614c0f57610100808354040283529160200191614c3a565b820191906000526020600020905b815481529060010190602001808311614c1d57829003601f168201915b505050505081565b60008251111515614c5257600080fd5b60008151111515614c6257600080fd5b600073ffffffffffffffffffffffffffffffffffffffff163373ffffffffffffffffffffffffffffffffffffffff1614151515614c9e57600080fd5b60016000815480929190600101919050555060a0604051908101604052806001548152602001838152602001828152602001600081526020013373ffffffffffffffffffffffffffffffffffffffff16815250600460006001548152602001908152602001600020600082015181600001556020820151816001019080519060200190614d2c929190615a90565b506040820151816002019080519060200190614d49929190615a90565b506060820151816003015560808201518160040160006101000a81548173ffffffffffffffffffffffffffffffffffffffff021916908373ffffffffffffffffffffffffffffffffffffffff1602179055509050507fc1d8dfa99b3f84f95d3f0bc4a768addeb97b83b20aef7f9cb6729e126bafd2f960015483836000336040518086815260200180602001806020018581526020018473ffffffffffffffffffffffffffffffffffffffff1673ffffffffffffffffffffffffffffffffffffffff168152602001838103835287818151815260200191508051906020019080838360005b83811015614e49578082015181840152602081019050614e2e565b50505050905090810190601f168015614e765780820380516001836020036101000a031916815260200191505b50838103825286818151815260200191508051906020019080838360005b83811015614eaf578082015181840152602081019050614e94565b50505050905090810190601f168015614edc5780820380516001836020036101000a031916815260200191505b5097505050505050505060405180910390a15050565b606060008251111515614f0457600080fd5b600360008154809291906001019190505550600073ffffffffffffffffffffffffffffffffffffffff163373ffffffffffffffffffffffffffffffffffffffff1614151515614f5257600080fd5b602060405190810160405280838152506006600060035481526020019081526020016000206000820151816000019080519060200190614f93929190615a90565b5090505081600d9080519060200190614fad929190615b10565b50600d8054600181600116156101000203166002900480601f0160208091040260200160405190810160405280929190818152602001828054600181600116156101000203166002900480156150445780601f1061501957610100808354040283529160200191615044565b820191906000526020600020905b81548152906001019060200180831161502757829003601f168201915b50505050509050919050565b60606000825111151561506257600080fd5b600360008154809291906001019190505550600073ffffffffffffffffffffffffffffffffffffffff163373ffffffffffffffffffffffffffffffffffffffff16141515156150b057600080fd5b6020604051908101604052808381525060066000600354815260200190815260200160002060008201518160000190805190602001906150f1929190615a90565b50905050816010908051906020019061510b929190615b10565b5060108054600181600116156101000203166002900480601f0160208091040260200160405190810160405280929190818152602001828054600181600116156101000203166002900480156151a25780601f10615177576101008083540402835291602001916151a2565b820191906000526020600020905b81548152906001019060200180831161518557829003601f168201915b50505050509050919050565b6060600082511115156151c057600080fd5b600360008154809291906001019190505550600073ffffffffffffffffffffffffffffffffffffffff163373ffffffffffffffffffffffffffffffffffffffff161415151561520e57600080fd5b60206040519081016040528083815250600660006003548152602001908152602001600020600082015181600001908051906020019061524f929190615a90565b5090505081600b9080519060200190615269929190615b10565b50600b8054600181600116156101000203166002900480601f0160208091040260200160405190810160405280929190818152602001828054600181600116156101000203166002900480156153005780601f106152d557610100808354040283529160200191615300565b820191906000526020600020905b8154815290600101906020018083116152e357829003601f168201915b50505050509050919050565b60606000825111151561531e57600080fd5b600360008154809291906001019190505550600073ffffffffffffffffffffffffffffffffffffffff163373ffffffffffffffffffffffffffffffffffffffff161415151561536c57600080fd5b6020604051908101604052808381525060066000600354815260200190815260200160002060008201518160000190805190602001906153ad929190615a90565b5090505081600990805190602001906153c7929190615b10565b507f08b4c8af27fbcbcf557247224b89dddcdba81916cc5b733ed4abb75141eb12d0823360405180806020018373ffffffffffffffffffffffffffffffffffffffff1673ffffffffffffffffffffffffffffffffffffffff168152602001828103825284818151815260200191508051906020019080838360005b8381101561545d578082015181840152602081019050615442565b50505050905090810190601f16801561548a5780820380516001836020036101000a031916815260200191505b50935050505060405180910390a160098054600181600116156101000203166002900480601f01602080910402602001604051908101604052809291908181526020018280546001816001161561010002031660029004801561552e5780601f106155035761010080835404028352916020019161552e565b820191906000526020600020905b81548152906001019060200180831161551157829003601f168201915b50505050509050919050565b60606000825111151561554c57600080fd5b600360008154809291906001019190505550600073ffffffffffffffffffffffffffffffffffffffff163373ffffffffffffffffffffffffffffffffffffffff161415151561559a57600080fd5b6020604051908101604052808381525060066000600354815260200190815260200160002060008201518160000190805190602001906155db929190615a90565b5090505081600e90805190602001906155f5929190615b10565b50600e8054600181600116156101000203166002900480601f01602080910402602001604051908101604052809291908181526020018280546001816001161561010002031660029004801561568c5780601f106156615761010080835404028352916020019161568c565b820191906000526020600020905b81548152906001019060200180831161566f57829003601f168201915b50505050509050919050565b6060600082511115156156aa57600080fd5b600360008154809291906001019190505550600073ffffffffffffffffffffffffffffffffffffffff163373ffffffffffffffffffffffffffffffffffffffff16141515156156f857600080fd5b602060405190810160405280838152506006600060035481526020019081526020016000206000820151816000019080519060200190615739929190615a90565b5090505081600c9080519060200190615753929190615b10565b50600c8054600181600116156101000203166002900480601f0160208091040260200160405190810160405280929190818152602001828054600181600116156101000203166002900480156157ea5780601f106157bf576101008083540402835291602001916157ea565b820191906000526020600020905b8154815290600101906020018083116157cd57829003601f168201915b50505050509050919050565b60178054600181600116156101000203166002900480601f01602080910402602001604051908101604052809291908181526020018280546001816001161561010002031660029004801561588c5780601f106158615761010080835404028352916020019161588c565b820191906000526020600020905b81548152906001019060200180831161586f57829003601f168201915b505050505081565b6060600082511115156158a657600080fd5b600360008154809291906001019190505550600073ffffffffffffffffffffffffffffffffffffffff163373ffffffffffffffffffffffffffffffffffffffff16141515156158f457600080fd5b602060405190810160405280838152506006600060035481526020019081526020016000206000820151816000019080519060200190615935929190615a90565b50905050816011908051906020019061594f929190615b10565b5060118054600181600116156101000203166002900480601f0160208091040260200160405190810160405280929190818152602001828054600181600116156101000203166002900480156159e65780601f106159bb576101008083540402835291602001916159e6565b820191906000526020600020905b8154815290600101906020018083116159c957829003601f168201915b50505050509050919050565b60138054600181600116156101000203166002900480601f016020809104026020016040519081016040528092919081815260200182805460018160011615610100020316600290048015615a885780601f10615a5d57610100808354040283529160200191615a88565b820191906000526020600020905b815481529060010190602001808311615a6b57829003601f168201915b505050505081565b828054600181600116156101000203166002900490600052602060002090601f016020900481019282601f10615ad157805160ff1916838001178555615aff565b82800160010185558215615aff579182015b82811115615afe578251825591602001919060010190615ae3565b5b509050615b0c9190615bd6565b5090565b828054600181600116156101000203166002900490600052602060002090601f016020900481019282601f10615b5157805160ff1916838001178555615b7f565b82800160010185558215615b7f579182015b82811115615b7e578251825591602001919060010190615b63565b5b509050615b8c9190615bd6565b5090565b60a06040519081016040528060008152602001606081526020016060815260200160008152602001600073ffffffffffffffffffffffffffffffffffffffff1681525090565b615bf891905b80821115615bf4576000816000905550600101615bdc565b5090565b9056fea165627a7a723058203eee1175731c78e7de407c03d42636930d437ca475fa136f94fcec8b4d7ec4340029",
  "source": "pragma solidity ^0.5.0;\r\n\r\ncontract UBPP {\r\n  string public name;\r\n  uint public imageCount = 0;\r\n  uint public docCount = 0;\r\n  uint public mformCount = 0;\r\n  mapping(uint => Image) public images;\r\n  mapping(uint => Doc) public docs;\r\n  mapping(uint => Form) public mforms;\r\n  string public fullname = 'unanswered';\r\n  string public mail = 'unanswered';\r\n  string public phno = 'unanswered';\r\n  string public gender = 'unanswered';\r\n  string public date = 'unanswered';\r\n  string public height = 'unanswered';\r\n  string public weight = 'unanswered';\r\n  string public blood = 'unanswered';\r\n  string public vacc = 'unanswered';\r\n  string public all = 'unanswered';\r\n  string public pres = 'unanswered';\r\n  string public sym = 'unanswered';\r\n  string public trav = 'unanswered';\r\n  string public his = 'unanswered';\r\n  string public ename = 'unanswered';\r\n  string public eno = 'unanswered';\r\n  string public ex = 'unanswered';\r\n\r\n  \r\n  Form public mform;\r\n\r\n  struct Image {\r\n    uint id;\r\n    string hash;\r\n    string description;\r\n    uint tipAmount;\r\n    address payable author;\r\n  }\r\n\r\n  struct Form {\r\n    string formname;\r\n  }\r\n\r\n  struct Doc {\r\n    uint id;\r\n    string hash;\r\n    string description;\r\n    uint tipAmount;\r\n    address payable author;\r\n  }\r\n\r\n  event ImageCreated(\r\n    uint id,\r\n    string hash,\r\n    string description,\r\n    uint tipAmount,\r\n    address payable author\r\n  );\r\n\r\n  event DocCreated(\r\n    uint id,\r\n    string hash,\r\n    string description,\r\n    uint tipAmount,\r\n    address payable author\r\n  );\r\n\r\n  event ImageTipped(\r\n    uint id,\r\n    string hash,\r\n    string description,\r\n    uint tipAmount,\r\n    address payable author\r\n  );\r\n\r\n  event NameCreated(\r\n    string name,\r\n    address payable author\r\n  );\r\n\r\n  constructor() public {\r\n    name = \"UBPP\";\r\n\t//name = \"UBPP\";\r\n  }\r\n\r\n  function testfunc() public returns (string memory) {\r\n    return fullname;\r\n  }\r\n\r\n  function uploadImage(string memory _imgHash, string memory _description) public {\r\n    // Make sure the image hash exists\r\n    require(bytes(_imgHash).length > 0);\r\n    // Make sure image description exists\r\n    require(bytes(_description).length > 0);\r\n    // Make sure uploader address exists\r\n    require(msg.sender!=address(0));\r\n\r\n    // Increment image id\r\n    imageCount ++;\r\n\r\n    // Add Image to the contract\r\n    images[imageCount] = Image(imageCount, _imgHash, _description, 0, msg.sender);\r\n    // Trigger an event\r\n    emit ImageCreated(imageCount, _imgHash, _description, 0, msg.sender);\r\n  }\r\n\r\n  function uploadName(string memory _name) public returns (string memory){\r\n    require(bytes(_name).length > 0);\r\n    mformCount++;\r\n    require(msg.sender!=address(0));\r\n    mforms[mformCount] = Form(_name);\r\n    fullname = _name;\r\n    emit NameCreated(_name, msg.sender);\r\n\r\n    return fullname;\r\n  }\r\n\r\n  function uploadMail(string memory _name) public returns (string memory){\r\n    require(bytes(_name).length > 0);\r\n\r\n    require(msg.sender!=address(0));\r\n    mforms[mformCount] = Form(_name);\r\n    mail = _name;\r\n    //emit NameCreated(_name, msg.sender);\r\n\r\n    return mail;\r\n  }\r\n  \r\n  function uploadPhno(string memory _name) public returns (string memory){\r\n    require(bytes(_name).length > 0);\r\n    mformCount++;\r\n    require(msg.sender!=address(0));\r\n    mforms[mformCount] = Form(_name);\r\n    phno = _name;\r\n    emit NameCreated(_name, msg.sender);\r\n\r\n    return phno;\r\n  }\r\n  \r\n  function uploadGender(string memory _name) public returns (string memory){\r\n    require(bytes(_name).length > 0);\r\n    mformCount++;\r\n    require(msg.sender!=address(0));\r\n    mforms[mformCount] = Form(_name);\r\n    gender = _name;\r\n    emit NameCreated(_name, msg.sender);\r\n\r\n    return gender;\r\n  }\r\n  \r\n  function uploadDob(string memory _name) public returns (string memory){\r\n    require(bytes(_name).length > 0);\r\n    mformCount++;\r\n    require(msg.sender!=address(0));\r\n    mforms[mformCount] = Form(_name);\r\n    date = _name;\r\n    //emit NameCreated(_name, msg.sender);\r\n\r\n    return date;\r\n  }\r\n  \r\n  function uploadHeight(string memory _name) public returns (string memory){\r\n    require(bytes(_name).length > 0);\r\n    mformCount++;\r\n    require(msg.sender!=address(0));\r\n    mforms[mformCount] = Form(_name);\r\n    height = _name;\r\n    //emit NameCreated(_name, msg.sender);\r\n\r\n    return height;\r\n  }\r\n  \r\n  function uploadWeight(string memory _name) public returns (string memory){\r\n    require(bytes(_name).length > 0);\r\n    mformCount++;\r\n    require(msg.sender!=address(0));\r\n    mforms[mformCount] = Form(_name);\r\n    weight = _name;\r\n    //emit NameCreated(_name, msg.sender);\r\n\r\n    return weight;\r\n  }\r\n  \r\n  function uploadBg(string memory _name) public returns (string memory){\r\n    require(bytes(_name).length > 0);\r\n    mformCount++;\r\n    require(msg.sender!=address(0));\r\n    mforms[mformCount] = Form(_name);\r\n    blood = _name;\r\n    //emit NameCreated(_name, msg.sender);\r\n\r\n    return blood;\r\n  }\r\n  \r\n  function uploadVacc(string memory _name) public returns (string memory){\r\n    require(bytes(_name).length > 0);\r\n    mformCount++;\r\n    require(msg.sender!=address(0));\r\n    mforms[mformCount] = Form(_name);\r\n    vacc = _name;\r\n    //emit NameCreated(_name, msg.sender);\r\n\r\n    return vacc;\r\n  }\r\n  \r\n  function uploadAller(string memory _name) public returns (string memory){\r\n    require(bytes(_name).length > 0);\r\n    mformCount++;\r\n    require(msg.sender!=address(0));\r\n    mforms[mformCount] = Form(_name);\r\n    all = _name;\r\n    //emit NameCreated(_name, msg.sender);\r\n\r\n    return all;\r\n  }\r\n  \r\n  function uploadPres(string memory _name) public returns (string memory){\r\n    require(bytes(_name).length > 0);\r\n    mformCount++;\r\n    require(msg.sender!=address(0));\r\n    mforms[mformCount] = Form(_name);\r\n    pres = _name;\r\n    //emit NameCreated(_name, msg.sender);\r\n\r\n    return pres;\r\n  }\r\n  \r\n  function uploadSym(string memory _name) public returns (string memory){\r\n    require(bytes(_name).length > 0);\r\n    mformCount++;\r\n    require(msg.sender!=address(0));\r\n    mforms[mformCount] = Form(_name);\r\n    sym = _name;\r\n    //emit NameCreated(_name, msg.sender);\r\n\r\n    return sym;\r\n  }\r\n  \r\n  function uploadTrav(string memory _name) public returns (string memory){\r\n    require(bytes(_name).length > 0);\r\n    mformCount++;\r\n    require(msg.sender!=address(0));\r\n    mforms[mformCount] = Form(_name);\r\n    trav = _name;\r\n    //emit NameCreated(_name, msg.sender);\r\n\r\n    return trav;\r\n  }\r\n  \r\n  function uploadHist(string memory _name) public returns (string memory){\r\n    require(bytes(_name).length > 0);\r\n    mformCount++;\r\n    require(msg.sender!=address(0));\r\n    mforms[mformCount] = Form(_name);\r\n    his = _name;\r\n    //emit NameCreated(_name, msg.sender);\r\n\r\n    return his;\r\n  }\r\n  \r\n  function uploadEmNam(string memory _name) public returns (string memory){\r\n    require(bytes(_name).length > 0);\r\n    mformCount++;\r\n    require(msg.sender!=address(0));\r\n    mforms[mformCount] = Form(_name);\r\n    ename = _name;\r\n    //emit NameCreated(_name, msg.sender);\r\n\r\n    return ename;\r\n  }\r\n  \r\n  function uploadEmNo(string memory _name) public returns (string memory){\r\n    require(bytes(_name).length > 0);\r\n    mformCount++;\r\n    require(msg.sender!=address(0));\r\n    mforms[mformCount] = Form(_name);\r\n    eno = _name;\r\n    //emit NameCreated(_name, msg.sender);\r\n\r\n    return eno;\r\n  }\r\n  \r\n  function uploadExt(string memory _name) public returns (string memory){\r\n    require(bytes(_name).length > 0);\r\n    mformCount++;\r\n    require(msg.sender!=address(0));\r\n    mforms[mformCount] = Form(_name);\r\n    ex = _name;\r\n    //emit NameCreated(_name, msg.sender);\r\n\r\n    return ex;\r\n  }\r\n\r\n  function uploadDoc(string memory _docHash, string memory _description) public {\r\n    // Make sure the image hash exists\r\n    require(bytes(_docHash).length > 0);\r\n    // Make sure image description exists\r\n    require(bytes(_description).length > 0);\r\n    // Make sure uploader address exists\r\n    require(msg.sender!=address(0));\r\n\r\n    // Increment image id\r\n    docCount ++;\r\n\r\n    // Add Image to the contract\r\n    docs[docCount] = Doc(docCount, _docHash, _description, 0, msg.sender);\r\n    // Trigger an event\r\n    //emit DocCreated(docCount, _docHash, _description, 0, msg.sender);\r\n  }\r\n\r\n  function tipImageOwner(uint _id) public payable {\r\n    // Make sure the id is valid\r\n    require(_id > 0 && _id <= imageCount);\r\n    // Fetch the image\r\n    Image memory _image = images[_id];\r\n    // Fetch the author\r\n    address payable _author = _image.author;\r\n    // Pay the author by sending them Ether\r\n    address(_author).transfer(msg.value);\r\n    // Increment the tip amount\r\n    _image.tipAmount = _image.tipAmount + msg.value;\r\n    // Update the image\r\n    images[_id] = _image;\r\n    // Trigger an event\r\n    //emit ImageTipped(_id, _image.hash, _image.description, _image.tipAmount, _author);\r\n  }\r\n}\r\n",
  "sourcePath": "D:/VSCode/New-DApp/src/contracts/UBPP.sol",
  "compiler": {
    "name": "solc",
    "version": "0.5.0+commit.1d4f565a.Emscripten.clang"
  },
  "schemaVersion": "3.0.1",
  "updatedAt": "2022-02-13T18:39:36.129Z",
  "devdoc": {
    "methods": {}
  },
  "userdoc": {
    "methods": {}
  }
}